{
    "contractName": "XYZToken",
    "abi": [
        {
            "inputs": [
                {
                    "internalType": "uint256",
                    "name": "rewardPool",
                    "type": "uint256"
                }
            ],
            "stateMutability": "nonpayable",
            "type": "constructor"
        },
        {
            "anonymous": false,
            "inputs": [
                {
                    "indexed": true,
                    "internalType": "address",
                    "name": "owner",
                    "type": "address"
                },
                {
                    "indexed": true,
                    "internalType": "address",
                    "name": "spender",
                    "type": "address"
                },
                {
                    "indexed": false,
                    "internalType": "uint256",
                    "name": "value",
                    "type": "uint256"
                }
            ],
            "name": "Approval",
            "type": "event"
        },
        {
            "anonymous": false,
            "inputs": [
                {
                    "indexed": true,
                    "internalType": "address",
                    "name": "from",
                    "type": "address"
                },
                {
                    "indexed": true,
                    "internalType": "address",
                    "name": "to",
                    "type": "address"
                },
                {
                    "indexed": false,
                    "internalType": "uint256",
                    "name": "value",
                    "type": "uint256"
                }
            ],
            "name": "Transfer",
            "type": "event"
        },
        {
            "inputs": [
                {
                    "internalType": "address",
                    "name": "owner",
                    "type": "address"
                },
                {
                    "internalType": "address",
                    "name": "delegate",
                    "type": "address"
                }
            ],
            "name": "_allowance",
            "outputs": [
                {
                    "internalType": "uint256",
                    "name": "",
                    "type": "uint256"
                }
            ],
            "stateMutability": "view",
            "type": "function"
        },
        {
            "inputs": [],
            "name": "_name",
            "outputs": [
                {
                    "internalType": "string",
                    "name": "",
                    "type": "string"
                }
            ],
            "stateMutability": "view",
            "type": "function"
        },
        {
            "inputs": [],
            "name": "_symbol",
            "outputs": [
                {
                    "internalType": "string",
                    "name": "",
                    "type": "string"
                }
            ],
            "stateMutability": "view",
            "type": "function"
        },
        {
            "inputs": [
                {
                    "internalType": "address",
                    "name": "",
                    "type": "address"
                },
                {
                    "internalType": "address",
                    "name": "",
                    "type": "address"
                }
            ],
            "name": "allowance",
            "outputs": [
                {
                    "internalType": "uint256",
                    "name": "",
                    "type": "uint256"
                }
            ],
            "stateMutability": "view",
            "type": "function"
        },
        {
            "inputs": [
                {
                    "internalType": "address",
                    "name": "_spender",
                    "type": "address"
                },
                {
                    "internalType": "uint256",
                    "name": "_value",
                    "type": "uint256"
                }
            ],
            "name": "approve",
            "outputs": [
                {
                    "internalType": "bool",
                    "name": "success",
                    "type": "bool"
                }
            ],
            "stateMutability": "nonpayable",
            "type": "function"
        },
        {
            "inputs": [
                {
                    "internalType": "address",
                    "name": "account",
                    "type": "address"
                }
            ],
            "name": "balanceOf",
            "outputs": [
                {
                    "internalType": "uint256",
                    "name": "",
                    "type": "uint256"
                }
            ],
            "stateMutability": "view",
            "type": "function"
        },
        {
            "inputs": [
                {
                    "internalType": "address",
                    "name": "",
                    "type": "address"
                }
            ],
            "name": "balances",
            "outputs": [
                {
                    "internalType": "uint256",
                    "name": "",
                    "type": "uint256"
                }
            ],
            "stateMutability": "view",
            "type": "function"
        },
        {
            "inputs": [],
            "name": "totalSupply",
            "outputs": [
                {
                    "internalType": "uint256",
                    "name": "",
                    "type": "uint256"
                }
            ],
            "stateMutability": "view",
            "type": "function"
        },
        {
            "inputs": [
                {
                    "internalType": "address",
                    "name": "_to",
                    "type": "address"
                },
                {
                    "internalType": "uint256",
                    "name": "_value",
                    "type": "uint256"
                }
            ],
            "name": "transfer",
            "outputs": [
                {
                    "internalType": "bool",
                    "name": "success",
                    "type": "bool"
                }
            ],
            "stateMutability": "nonpayable",
            "type": "function"
        },
        {
            "inputs": [
                {
                    "internalType": "address",
                    "name": "_from",
                    "type": "address"
                },
                {
                    "internalType": "address",
                    "name": "_to",
                    "type": "address"
                },
                {
                    "internalType": "uint256",
                    "name": "_value",
                    "type": "uint256"
                }
            ],
            "name": "transferFrom",
            "outputs": [
                {
                    "internalType": "bool",
                    "name": "success",
                    "type": "bool"
                }
            ],
            "stateMutability": "nonpayable",
            "type": "function"
        }
    ],
    "bytecode": "608060405234801561001057600080fd5b506040516107e13803806107e183398101604081905261002f9161013d565b604080518082019091526008808252672c2cad2a37b5b2b760c11b602090920191825261005e916000916100a4565b50604080518082019091526003808252622c2cad60e91b6020909201918252610089916001916100a4565b50306000908152600360205260409020819055600255610191565b8280546100b090610156565b90600052602060002090601f0160209004810192826100d25760008555610118565b82601f106100eb57805160ff1916838001178555610118565b82800160010185558215610118579182015b828111156101185782518255916020019190600101906100fd565b50610124929150610128565b5090565b5b808211156101245760008155600101610129565b60006020828403121561014f57600080fd5b5051919050565b600181811c9082168061016a57607f821691505b6020821081141561018b57634e487b7160e01b600052602260045260246000fd5b50919050565b610641806101a06000396000f3fe608060405234801561001057600080fd5b506004361061009e5760003560e01c8063a9059cbb11610066578063a9059cbb14610161578063b09f126614610174578063d28d885214610189578063dd336c1214610191578063dd62ed3e146101ca57600080fd5b8063095ea7b3146100a357806318160ddd146100f357806323b872dd1461010557806327e235e31461011857806370a0823114610138575b600080fd5b6100de6100b136600461047b565b3360009081526004602090815260408083206001600160a01b039590951683529390529190912055600190565b60405190151581526020015b60405180910390f35b6002545b6040519081526020016100ea565b6100de6101133660046104a5565b6101f5565b6100f76101263660046104e1565b60036020526000908152604090205481565b6100f76101463660046104e1565b6001600160a01b031660009081526003602052604090205490565b6100de61016f36600461047b565b6102e4565b61017c6103c4565b6040516100ea9190610503565b61017c610452565b6100f761019f366004610558565b6001600160a01b03918216600090815260056020908152604080832093909416825291909152205490565b6100f76101d8366004610558565b600460209081526000928352604080842090915290825290205481565b6001600160a01b03831660009081526003602052604081205482111561021a57600080fd5b816002600082825461022c91906105a1565b90915550506001600160a01b038416600090815260036020526040812080548492906102599084906105a1565b90915550506001600160a01b038316600090815260036020526040812080548492906102869084906105b8565b92505081905550826001600160a01b0316846001600160a01b03167fddf252ad1be2c89b69c2b068fc378daa952ba7f163c4a11628f55a4df523b3ef846040516102d291815260200190565b60405180910390a35060019392505050565b6000336103375760405162461bcd60e51b815260206004820152601f60248201527f45524332303a206d696e7420746f20746865207a65726f206164647265737300604482015260640160405180910390fd5b816002600082825461034991906105b8565b90915550506001600160a01b038316600090815260036020526040812080548492906103769084906105b8565b90915550506040518281526001600160a01b0384169033907fddf252ad1be2c89b69c2b068fc378daa952ba7f163c4a11628f55a4df523b3ef9060200160405180910390a350600192915050565b600180546103d1906105d0565b80601f01602080910402602001604051908101604052809291908181526020018280546103fd906105d0565b801561044a5780601f1061041f5761010080835404028352916020019161044a565b820191906000526020600020905b81548152906001019060200180831161042d57829003601f168201915b505050505081565b600080546103d1906105d0565b80356001600160a01b038116811461047657600080fd5b919050565b6000806040838503121561048e57600080fd5b6104978361045f565b946020939093013593505050565b6000806000606084860312156104ba57600080fd5b6104c38461045f565b92506104d16020850161045f565b9150604084013590509250925092565b6000602082840312156104f357600080fd5b6104fc8261045f565b9392505050565b600060208083528351808285015260005b8181101561053057858101830151858201604001528201610514565b81811115610542576000604083870101525b50601f01601f1916929092016040019392505050565b6000806040838503121561056b57600080fd5b6105748361045f565b91506105826020840161045f565b90509250929050565b634e487b7160e01b600052601160045260246000fd5b6000828210156105b3576105b361058b565b500390565b600082198211156105cb576105cb61058b565b500190565b600181811c908216806105e457607f821691505b6020821081141561060557634e487b7160e01b600052602260045260246000fd5b5091905056fea26469706673582212201704cb49ba60ec2f57ff5aa81d3b0679370e1f47d375ec309ec6ae9ec71622a464736f6c634300080a0033",
    "sourcePath": "c:/Users/dxgon/Documents/VisualStudioWorkspace/bank-sc/ethereum/contracts/XYZToken.sol",
    "compiler": {
        "name": "solc",
        "version": "0.8.10+commit.fc410830"
    },
    "functionHashes": {
        "_allowance(address,address)": "dd336c12",
        "_name()": "d28d8852",
        "_symbol()": "b09f1266",
        "allowance(address,address)": "dd62ed3e",
        "approve(address,uint256)": "095ea7b3",
        "balanceOf(address)": "70a08231",
        "balances(address)": "27e235e3",
        "totalSupply()": "18160ddd",
        "transfer(address,uint256)": "a9059cbb",
        "transferFrom(address,address,uint256)": "23b872dd"
    },
    "gasEstimates": {
        "creation": {
            "codeDepositCost": "320200",
            "executionCost": "infinite",
            "totalCost": "infinite"
        },
        "external": {
            "_allowance(address,address)": "infinite",
            "_name()": "infinite",
            "_symbol()": "infinite",
            "allowance(address,address)": "infinite",
            "approve(address,uint256)": "22643",
            "balanceOf(address)": "2626",
            "balances(address)": "2586",
            "totalSupply()": "2304",
            "transfer(address,uint256)": "infinite",
            "transferFrom(address,address,uint256)": "infinite"
        }
    }
}