{
    "contractName": "Bank",
    "abi": [
        {
            "inputs": [
                {
                    "internalType": "uint256",
                    "name": "T",
                    "type": "uint256"
                },
                {
                    "internalType": "string",
                    "name": "timeUnit",
                    "type": "string"
                },
                {
                    "internalType": "uint256",
                    "name": "_rewardPool",
                    "type": "uint256"
                }
            ],
            "stateMutability": "nonpayable",
            "type": "constructor"
        },
        {
            "anonymous": false,
            "inputs": [
                {
                    "indexed": true,
                    "internalType": "address",
                    "name": "previousOwner",
                    "type": "address"
                },
                {
                    "indexed": true,
                    "internalType": "address",
                    "name": "newOwner",
                    "type": "address"
                }
            ],
            "name": "OwnershipTransferred",
            "type": "event"
        },
        {
            "inputs": [],
            "name": "R1",
            "outputs": [
                {
                    "internalType": "uint256",
                    "name": "",
                    "type": "uint256"
                }
            ],
            "stateMutability": "view",
            "type": "function"
        },
        {
            "inputs": [],
            "name": "R2",
            "outputs": [
                {
                    "internalType": "uint256",
                    "name": "",
                    "type": "uint256"
                }
            ],
            "stateMutability": "view",
            "type": "function"
        },
        {
            "inputs": [],
            "name": "activeUsers",
            "outputs": [
                {
                    "internalType": "uint256",
                    "name": "",
                    "type": "uint256"
                }
            ],
            "stateMutability": "view",
            "type": "function"
        },
        {
            "inputs": [],
            "name": "bankWithdraw",
            "outputs": [],
            "stateMutability": "nonpayable",
            "type": "function"
        },
        {
            "inputs": [
                {
                    "internalType": "uint256",
                    "name": "_numTokens",
                    "type": "uint256"
                }
            ],
            "name": "deposit",
            "outputs": [],
            "stateMutability": "payable",
            "type": "function"
        },
        {
            "inputs": [],
            "name": "getTime",
            "outputs": [
                {
                    "internalType": "uint256",
                    "name": "",
                    "type": "uint256"
                }
            ],
            "stateMutability": "view",
            "type": "function"
        },
        {
            "inputs": [],
            "name": "owner",
            "outputs": [
                {
                    "internalType": "address",
                    "name": "",
                    "type": "address"
                }
            ],
            "stateMutability": "view",
            "type": "function"
        },
        {
            "inputs": [],
            "name": "renounceOwnership",
            "outputs": [],
            "stateMutability": "nonpayable",
            "type": "function"
        },
        {
            "inputs": [],
            "name": "rewardPool",
            "outputs": [
                {
                    "internalType": "uint256",
                    "name": "",
                    "type": "uint256"
                }
            ],
            "stateMutability": "view",
            "type": "function"
        },
        {
            "inputs": [],
            "name": "startTime",
            "outputs": [
                {
                    "internalType": "uint256",
                    "name": "",
                    "type": "uint256"
                }
            ],
            "stateMutability": "view",
            "type": "function"
        },
        {
            "inputs": [],
            "name": "timeBlock",
            "outputs": [
                {
                    "internalType": "uint256",
                    "name": "",
                    "type": "uint256"
                }
            ],
            "stateMutability": "view",
            "type": "function"
        },
        {
            "inputs": [],
            "name": "token",
            "outputs": [
                {
                    "internalType": "contract XYZToken",
                    "name": "",
                    "type": "address"
                }
            ],
            "stateMutability": "view",
            "type": "function"
        },
        {
            "inputs": [
                {
                    "internalType": "address",
                    "name": "newOwner",
                    "type": "address"
                }
            ],
            "name": "transferOwnership",
            "outputs": [],
            "stateMutability": "nonpayable",
            "type": "function"
        },
        {
            "inputs": [
                {
                    "internalType": "address",
                    "name": "",
                    "type": "address"
                }
            ],
            "name": "users",
            "outputs": [
                {
                    "internalType": "uint256",
                    "name": "value",
                    "type": "uint256"
                },
                {
                    "internalType": "bool",
                    "name": "withdrew",
                    "type": "bool"
                },
                {
                    "internalType": "bool",
                    "name": "firstDeposit",
                    "type": "bool"
                }
            ],
            "stateMutability": "view",
            "type": "function"
        },
        {
            "inputs": [],
            "name": "withdraw",
            "outputs": [],
            "stateMutability": "nonpayable",
            "type": "function"
        }
    ],
    "bytecode": "60806040523480156200001157600080fd5b506040516200191138038062001911833981016040819052620000349162000271565b6200003f33620001da565b806040516200004e906200024d565b908152602001604051809103906000f08015801562000071573d6000803e3d6000fd5b50600180546001600160a01b03929092166001600160a01b03199283161790556002805490911633179055426003556040805180820190915260078152666d696e7574657360c81b6020918201528251908301207f48afcfd715a54c0f2b115d49c5dab7260911d987f1dd4bd23ff450d97c876b1a14156200010357620000fa83603c62000364565b6004556200016f565b604080518082019091526005815264686f75727360d81b6020918201528251908301207fbe80a06a2d1f01b7dcd22cdbaefb6c34d08c1fcb16516b93fd2cdd4fa90dcbc414156200015c57620000fa83610e1062000364565b6200016b836201518062000364565b6004555b80600581905550620001ab6064620001976014846200022a60201b62000b5c1790919060201c565b6200023f60201b62000b6f1790919060201c565b600655620001cd60646200019783601e6200022a602090811b62000b5c17901c565b60075550620003b5915050565b600080546001600160a01b038381166001600160a01b0319831681178455604051919092169283917f8be0079c531659141344cd1fd0a4f28419497f9722a3daafe3b4186f6b6457e09190a35050565b600062000238828462000364565b9392505050565b600062000238828462000392565b6107e1806200113083390190565b634e487b7160e01b600052604160045260246000fd5b6000806000606084860312156200028757600080fd5b8351602080860151919450906001600160401b0380821115620002a957600080fd5b818701915087601f830112620002be57600080fd5b815181811115620002d357620002d36200025b565b604051601f8201601f19908116603f01168101908382118183101715620002fe57620002fe6200025b565b816040528281528a868487010111156200031757600080fd5b600093505b828410156200033b57848401860151818501870152928501926200031c565b828411156200034d5760008684830101525b809750505050505050604084015190509250925092565b60008160001904831182151516156200038d57634e487b7160e01b600052601160045260246000fd5b500290565b600082620003b057634e487b7160e01b600052601260045260246000fd5b500490565b610d6b80620003c56000396000f3fe6080604052600436106100e85760003560e01c80638da5cb5b1161008a578063b6b55f2511610059578063b6b55f251461024d578063f2fde38b14610260578063fc0c546a14610280578063fee2cb05146102a057600080fd5b80638da5cb5b14610192578063a87430ba146101c4578063ae750fb014610221578063b22dd2ca1461023757600080fd5b806366666aa9116100c657806366666aa91461013b578063715018a61461015157806374aa34de1461016657806378e979251461017c57600080fd5b80633ccfd60b146100ed578063557ed1ba146101045780636489673914610126575b600080fd5b3480156100f957600080fd5b506101026102b6565b005b34801561011057600080fd5b50425b6040519081526020015b60405180910390f35b34801561013257600080fd5b506101026106d6565b34801561014757600080fd5b5061011360055481565b34801561015d57600080fd5b506101026108d0565b34801561017257600080fd5b5061011360095481565b34801561018857600080fd5b5061011360035481565b34801561019e57600080fd5b506000546001600160a01b03165b6040516001600160a01b03909116815260200161011d565b3480156101d057600080fd5b506102046101df366004610bcb565b600a602052600090815260409020805460019091015460ff8082169161010090041683565b60408051938452911515602084015215159082015260600161011d565b34801561022d57600080fd5b5061011360045481565b34801561024357600080fd5b5061011360065481565b61010261025b366004610bf4565b610906565b34801561026c57600080fd5b5061010261027b366004610bcb565b610ac4565b34801561028c57600080fd5b506001546101ac906001600160a01b031681565b3480156102ac57600080fd5b5061011360075481565b6004546102c4906002610c23565b6003546102d19190610c42565b4210156103135760405162461bcd60e51b815260206004820152600b60248201526a131bd8dac81c195c9a5bd960aa1b60448201526064015b60405180910390fd5b336000908152600a6020526040902060018082015460ff1615151480159061033b5750805415155b61039f5760405162461bcd60e51b815260206004820152602f60248201527f596f7520616c726561647920776974686472657720616e6420646f6e2774206860448201526e617665206d6f726520746f6b656e7360881b606482015260840161030a565b6004546103ad906002610c23565b6003546103ba9190610c42565b42101580156103e357506004546103d2906003610c23565b6003546103df9190610c42565b4211155b1561053d57600154604080516318160ddd60e01b815290516000926001600160a01b0316916318160ddd9160048083019260209291908290030181865afa158015610432573d6000803e3d6000fd5b505050506040513d601f19601f820116820180604052508101906104569190610c5a565b82546006546104659190610c23565b61046f9190610c73565b905060006008548284600001546104869190610c42565b6104909190610c95565b6001546040516323b872dd60e01b81526001600160a01b0390911660048201819052336024830152604482018390529192506323b872dd906064016020604051808303816000875af11580156104ea573d6000803e3d6000fd5b505050506040513d601f19601f8201168201806040525081019061050e9190610cac565b5081600860008282546105219190610c42565b909155505050506001818101805460ff191690911790556106be565b60045461054b906003610c23565b6003546105589190610c42565b421015801561058057506004805461056f91610c23565b60035461057c9190610c42565b4211155b1561060257600154604080516318160ddd60e01b815290516000926001600160a01b0316916318160ddd9160048083019260209291908290030181865afa1580156105cf573d6000803e3d6000fd5b505050506040513d601f19601f820116820180604052508101906105f39190610c5a565b82546007546104659190610c23565b60006008546009546005546106179190610c73565b83546106239190610c42565b61062d9190610c95565b6001546040516323b872dd60e01b81526001600160a01b0390911660048201819052336024830152604482018390529192506323b872dd906064016020604051808303816000875af1158015610687573d6000803e3d6000fd5b505050506040513d601f19601f820116820180604052508101906106ab9190610cac565b50506001818101805460ff191690911790555b600980549060006106ce83610cce565b919050555050565b6000546001600160a01b031633146107005760405162461bcd60e51b815260040161030a90610ce5565b6009541561075a5760405162461bcd60e51b815260206004820152602160248201527f546865726520617265207374696c6c20757365727320746f20776974686472616044820152607760f81b606482015260840161030a565b6004805461076791610c23565b6003546107749190610c42565b4210156107c35760405162461bcd60e51b815260206004820152601d60248201527f49742069736e27742074696d6520746f20776974686472617720796574000000604482015260640161030a565b60085460055414156108225760405162461bcd60e51b815260206004820152602260248201527f546865726520617265206e6f206d6f726520746f6b656e7320617661696c61626044820152616c6560f01b606482015260840161030a565b6001546002546008546005546001600160a01b03938416936323b872dd93859391169161084f9190610c95565b6040516001600160e01b031960e086901b1681526001600160a01b03938416600482015292909116602483015260448201526064016020604051808303816000875af11580156108a3573d6000803e3d6000fd5b505050506040513d601f19601f820116820180604052508101906108c79190610cac565b50600554600855565b6000546001600160a01b031633146108fa5760405162461bcd60e51b815260040161030a90610ce5565b6109046000610b7b565b565b6004546003546109169190610c42565b4211156109655760405162461bcd60e51b815260206004820152601760248201527f506572696f6420746f206465706f73697420656e646564000000000000000000604482015260640161030a565b803410156109c15760405162461bcd60e51b815260206004820152602360248201527f4c6f7720616d6f756e74206f6620657468657220746f20746865736520746f6b604482015262656e7360e81b606482015260840161030a565b60015460405163a9059cbb60e01b81526001600160a01b0390911660048201819052602482018390529063a9059cbb906044016020604051808303816000875af1158015610a13573d6000803e3d6000fd5b505050506040513d601f19601f82011682018060405250810190610a379190610cac565b50336000908152600a60205260409020600190810154610100900460ff16151514610a9757336000908152600a6020526040812082815560018101805461ffff1916610100179055600980549192610a8e83610d1a565b91905055505050565b336000908152600a60205260408120805490918391839190610aba908490610c42565b9091555050505b50565b6000546001600160a01b03163314610aee5760405162461bcd60e51b815260040161030a90610ce5565b6001600160a01b038116610b535760405162461bcd60e51b815260206004820152602660248201527f4f776e61626c653a206e6577206f776e657220697320746865207a65726f206160448201526564647265737360d01b606482015260840161030a565b610ac181610b7b565b6000610b688284610c23565b9392505050565b6000610b688284610c73565b600080546001600160a01b038381166001600160a01b0319831681178455604051919092169283917f8be0079c531659141344cd1fd0a4f28419497f9722a3daafe3b4186f6b6457e09190a35050565b600060208284031215610bdd57600080fd5b81356001600160a01b0381168114610b6857600080fd5b600060208284031215610c0657600080fd5b5035919050565b634e487b7160e01b600052601160045260246000fd5b6000816000190483118215151615610c3d57610c3d610c0d565b500290565b60008219821115610c5557610c55610c0d565b500190565b600060208284031215610c6c57600080fd5b5051919050565b600082610c9057634e487b7160e01b600052601260045260246000fd5b500490565b600082821015610ca757610ca7610c0d565b500390565b600060208284031215610cbe57600080fd5b81518015158114610b6857600080fd5b600081610cdd57610cdd610c0d565b506000190190565b6020808252818101527f4f776e61626c653a2063616c6c6572206973206e6f7420746865206f776e6572604082015260600190565b6000600019821415610d2e57610d2e610c0d565b506001019056fea2646970667358221220f9df45200331c4838e5094b89f140f7a409f74bc61d561478f6e54e2a50265c864736f6c634300080a0033608060405234801561001057600080fd5b506040516107e13803806107e183398101604081905261002f9161013d565b604080518082019091526008808252672c2cad2a37b5b2b760c11b602090920191825261005e916000916100a4565b50604080518082019091526003808252622c2cad60e91b6020909201918252610089916001916100a4565b50306000908152600360205260409020819055600255610191565b8280546100b090610156565b90600052602060002090601f0160209004810192826100d25760008555610118565b82601f106100eb57805160ff1916838001178555610118565b82800160010185558215610118579182015b828111156101185782518255916020019190600101906100fd565b50610124929150610128565b5090565b5b808211156101245760008155600101610129565b60006020828403121561014f57600080fd5b5051919050565b600181811c9082168061016a57607f821691505b6020821081141561018b57634e487b7160e01b600052602260045260246000fd5b50919050565b610641806101a06000396000f3fe608060405234801561001057600080fd5b506004361061009e5760003560e01c8063a9059cbb11610066578063a9059cbb14610161578063b09f126614610174578063d28d885214610189578063dd336c1214610191578063dd62ed3e146101ca57600080fd5b8063095ea7b3146100a357806318160ddd146100f357806323b872dd1461010557806327e235e31461011857806370a0823114610138575b600080fd5b6100de6100b136600461047b565b3360009081526004602090815260408083206001600160a01b039590951683529390529190912055600190565b60405190151581526020015b60405180910390f35b6002545b6040519081526020016100ea565b6100de6101133660046104a5565b6101f5565b6100f76101263660046104e1565b60036020526000908152604090205481565b6100f76101463660046104e1565b6001600160a01b031660009081526003602052604090205490565b6100de61016f36600461047b565b6102e4565b61017c6103c4565b6040516100ea9190610503565b61017c610452565b6100f761019f366004610558565b6001600160a01b03918216600090815260056020908152604080832093909416825291909152205490565b6100f76101d8366004610558565b600460209081526000928352604080842090915290825290205481565b6001600160a01b03831660009081526003602052604081205482111561021a57600080fd5b816002600082825461022c91906105a1565b90915550506001600160a01b038416600090815260036020526040812080548492906102599084906105a1565b90915550506001600160a01b038316600090815260036020526040812080548492906102869084906105b8565b92505081905550826001600160a01b0316846001600160a01b03167fddf252ad1be2c89b69c2b068fc378daa952ba7f163c4a11628f55a4df523b3ef846040516102d291815260200190565b60405180910390a35060019392505050565b6000336103375760405162461bcd60e51b815260206004820152601f60248201527f45524332303a206d696e7420746f20746865207a65726f206164647265737300604482015260640160405180910390fd5b816002600082825461034991906105b8565b90915550506001600160a01b038316600090815260036020526040812080548492906103769084906105b8565b90915550506040518281526001600160a01b0384169033907fddf252ad1be2c89b69c2b068fc378daa952ba7f163c4a11628f55a4df523b3ef9060200160405180910390a350600192915050565b600180546103d1906105d0565b80601f01602080910402602001604051908101604052809291908181526020018280546103fd906105d0565b801561044a5780601f1061041f5761010080835404028352916020019161044a565b820191906000526020600020905b81548152906001019060200180831161042d57829003601f168201915b505050505081565b600080546103d1906105d0565b80356001600160a01b038116811461047657600080fd5b919050565b6000806040838503121561048e57600080fd5b6104978361045f565b946020939093013593505050565b6000806000606084860312156104ba57600080fd5b6104c38461045f565b92506104d16020850161045f565b9150604084013590509250925092565b6000602082840312156104f357600080fd5b6104fc8261045f565b9392505050565b600060208083528351808285015260005b8181101561053057858101830151858201604001528201610514565b81811115610542576000604083870101525b50601f01601f1916929092016040019392505050565b6000806040838503121561056b57600080fd5b6105748361045f565b91506105826020840161045f565b90509250929050565b634e487b7160e01b600052601160045260246000fd5b6000828210156105b3576105b361058b565b500390565b600082198211156105cb576105cb61058b565b500190565b600181811c908216806105e457607f821691505b6020821081141561060557634e487b7160e01b600052602260045260246000fd5b5091905056fea264697066735822122018e8ce2999136044503a4b21c40913b05dba5d2a9eaab94d7cd2cdd774c7a94964736f6c634300080a0033",
    "sourcePath": "c:/Users/dxgon/Documents/VisualStudioWorkspace/bank-sc/contracts/Bank.sol",
    "compiler": {
        "name": "solc",
        "version": "0.8.10+commit.fc410830"
    },
    "functionHashes": {
        "R1()": "b22dd2ca",
        "R2()": "fee2cb05",
        "activeUsers()": "74aa34de",
        "bankWithdraw()": "64896739",
        "deposit(uint256)": "b6b55f25",
        "getTime()": "557ed1ba",
        "owner()": "8da5cb5b",
        "renounceOwnership()": "715018a6",
        "rewardPool()": "66666aa9",
        "startTime()": "78e97925",
        "timeBlock()": "ae750fb0",
        "token()": "fc0c546a",
        "transferOwnership(address)": "f2fde38b",
        "users(address)": "a87430ba",
        "withdraw()": "3ccfd60b"
    },
    "gasEstimates": {
        "creation": {
            "codeDepositCost": "687000",
            "executionCost": "infinite",
            "totalCost": "infinite"
        },
        "external": {
            "R1()": "2373",
            "R2()": "2372",
            "activeUsers()": "2351",
            "bankWithdraw()": "infinite",
            "deposit(uint256)": "infinite",
            "getTime()": "215",
            "owner()": "2343",
            "renounceOwnership()": "28159",
            "rewardPool()": "2307",
            "startTime()": "2373",
            "timeBlock()": "2351",
            "token()": "2403",
            "transferOwnership(address)": "28318",
            "users(address)": "4721",
            "withdraw()": "infinite"
        }
    }
}